{
  "contractName": "Strings",
  "abi": [
    {
      "inputs": [
        {
          "internalType": "string",
          "name": "str",
          "type": "string"
        }
      ],
      "name": "length",
      "outputs": [
        {
          "internalType": "uint256",
          "name": "",
          "type": "uint256"
        }
      ],
      "stateMutability": "pure",
      "type": "function",
      "constant": true
    },
    {
      "inputs": [
        {
          "internalType": "string",
          "name": "str1",
          "type": "string"
        },
        {
          "internalType": "string",
          "name": "str2",
          "type": "string"
        }
      ],
      "name": "concatenate",
      "outputs": [
        {
          "internalType": "string",
          "name": "",
          "type": "string"
        }
      ],
      "stateMutability": "pure",
      "type": "function",
      "constant": true
    }
  ],
  "bytecode": "0x608060405234801561001057600080fd5b506106aa806100206000396000f3fe608060405234801561001057600080fd5b50600436106100365760003560e01c8063266001d31461003b578063436a66e71461006b575b600080fd5b610055600480360381019061005091906103ac565b61009b565b6040516100629190610460565b60405180910390f35b6100856004803603810190610080919061036b565b6102f3565b6040516100929190610482565b60405180910390f35b6060600083905060008390506000815183516100b7919061051a565b67ffffffffffffffff8111156100f6577f4e487b7100000000000000000000000000000000000000000000000000000000600052604160045260246000fd5b6040519080825280601f01601f1916602001820160405280156101285781602001600182028036833780820191505090505b50905060008190506000805b855181101561020a57858181518110610176577f4e487b7100000000000000000000000000000000000000000000000000000000600052603260045260246000fd5b602001015160f81c60f81b8383815181106101ba577f4e487b7100000000000000000000000000000000000000000000000000000000600052603260045260246000fd5b60200101907effffffffffffffffffffffffffffffffffffffffffffffffffffffffffffff1916908160001a90535081806101f4906105bc565b9250508080610202906105bc565b915050610134565b5060005b84518110156102e457848181518110610250577f4e487b7100000000000000000000000000000000000000000000000000000000600052603260045260246000fd5b602001015160f81c60f81b838381518110610294577f4e487b7100000000000000000000000000000000000000000000000000000000600052603260045260246000fd5b60200101907effffffffffffffffffffffffffffffffffffffffffffffffffffffffffffff1916908160001a90535081806102ce906105bc565b92505080806102dc906105bc565b91505061020e565b50819550505050505092915050565b6000808290508051915050919050565b6000610316610311846104ce565b61049d565b90508281526020810184848401111561032e57600080fd5b61033984828561057a565b509392505050565b600082601f83011261035257600080fd5b8135610362848260208601610303565b91505092915050565b60006020828403121561037d57600080fd5b600082013567ffffffffffffffff81111561039757600080fd5b6103a384828501610341565b91505092915050565b600080604083850312156103bf57600080fd5b600083013567ffffffffffffffff8111156103d957600080fd5b6103e585828601610341565b925050602083013567ffffffffffffffff81111561040257600080fd5b61040e85828601610341565b9150509250929050565b6000610423826104fe565b61042d8185610509565b935061043d818560208601610589565b61044681610663565b840191505092915050565b61045a81610570565b82525050565b6000602082019050818103600083015261047a8184610418565b905092915050565b60006020820190506104976000830184610451565b92915050565b6000604051905081810181811067ffffffffffffffff821117156104c4576104c3610634565b5b8060405250919050565b600067ffffffffffffffff8211156104e9576104e8610634565b5b601f19601f8301169050602081019050919050565b600081519050919050565b600082825260208201905092915050565b600061052582610570565b915061053083610570565b9250827fffffffffffffffffffffffffffffffffffffffffffffffffffffffffffffffff0382111561056557610564610605565b5b828201905092915050565b6000819050919050565b82818337600083830152505050565b60005b838110156105a757808201518184015260208101905061058c565b838111156105b6576000848401525b50505050565b60006105c782610570565b91507fffffffffffffffffffffffffffffffffffffffffffffffffffffffffffffffff8214156105fa576105f9610605565b5b600182019050919050565b7f4e487b7100000000000000000000000000000000000000000000000000000000600052601160045260246000fd5b7f4e487b7100000000000000000000000000000000000000000000000000000000600052604160045260246000fd5b6000601f19601f830116905091905056fea26469706673582212204eeb26125588cddb91caaa21187555170ba802572767ca84844eb7f3b8f6ac5864736f6c63430008000033",
  "immutableReferences": {},
  "source": "pragma solidity ^0.8.0;\n\ncontract Strings {\n  function length(string memory str) pure public returns(uint) {\n    bytes memory str_bytes = bytes(str);\n    return str_bytes.length;\n  }\n\n  function concatenate(string memory str1, string memory str2) pure public returns(string memory) {\n    bytes memory str_bytes1 = bytes(str1);\n    bytes memory str_bytes2 = bytes(str2);\n    string memory str = new string(str_bytes1.length + str_bytes2.length);\n    bytes memory str_bytes = bytes(str);\n\n    uint k = 0;\n    for(uint i = 0; i < str_bytes1.length; i++) {\n      str_bytes[k] = str_bytes1[i];\n      k++;\n    }\n    for(uint i = 0; i < str_bytes2.length; i++) {\n      str_bytes[k] = str_bytes2[i];\n      k++;\n    }\n\n    return string(str_bytes);\n  }\n}\n",
  "sourcePath": "C:\\Users\\admin\\Desktop\\Dapp30\\string-manipulation\\contracts\\Strings.sol",
  "compiler": {
    "name": "solc",
    "version": "0.8.0+commit.c7dfd78e.Emscripten.clang"
  },
  "schemaVersion": "3.4.11",
  "updatedAt": "2022-11-25T10:35:43.766Z",
  "networkType": "ethereum",
  "devdoc": {
    "kind": "dev",
    "methods": {},
    "version": 1
  },
  "userdoc": {
    "kind": "user",
    "methods": {},
    "version": 1
  }
}